:0200000460009A
:100000004643464200000156000000000103030081
:1000100000000000000000000000000000000000E0
:1000200000000000000000000000000000000000D0
:1000300000000000000000000000000000000000C0
:1000400000000000010408000000000000000000A3
:100050000000200000000000000000000000000080
:100060000000000000000000000000000000000090
:100070000000000000000000000000000000000080
:10008000EB04180A063204260000000000000000FD
:10009000050404240000000000000000000000002F
:1000A0000000000000000000000000000000000050
:1000B0000604000000000000000000000000000036
:1000C0000000000000000000000000000000000030
:1000D00020041808000000000000000000000000DC
:1000E0000000000000000000000000000000000010
:1000F0000000000000000000000000000000000000
:10010000D8041808000000000000000000000000F3
:100110000204180804200000000000000000000095
:1001200000000000000000000000000000000000CF
:10013000600400000000000000000000000000005B
:1001400000000000000000000000000000000000AF
:10015000000000000000000000000000000000009F
:10016000000000000000000000000000000000008F
:10017000000000000000000000000000000000007F
:10018000000000000000000000000000000000006F
:10019000000000000000000000000000000000005F
:1001A000000000000000000000000000000000004F
:1001B000000000000000000000000000000000003F
:1001C000000100000010000001000000000000001D
:1001D000000001000000000000000000000000001E
:1001E000000000000000000000000000000000000F
:1001F00000000000000000000000000000000000FF
:10020000FFFFFFFFFFFFFFFFFFFFFFFFFFFFFFFFFE
:10021000FFFFFFFFFFFFFFFFFFFFFFFFFFFFFFFFEE
:10100000D1002043491600600000000000000000ED
:101010002010006000100060009C036000000000D1
:101020000000006000A8030000000000FFFFFFFFB9
:10103000FFFFFFFFFFFFFFFFFFFFFFFFFFFFFFFFC0
:10104000FFFFFFFFFFFFFFFFFFFFFFFFFFFFFFFFB0
:10105000FFFFFFFFFFFFFFFFFFFFFFFFFFFFFFFFA0
:10106000FFFFFFFFFFFFFFFFFFFFFFFFFFFFFFFF90
:10140000814205D051F8043B40F8043B8242F9D8B0
:10141000704700BF044A05494FF0000342F8043BFF
:101420009142FBD8704700BFC08E002020BE012033
:101430002DE98848BFF34F8F00BF00BF00BF00BF3A
:1014400000F0EAFF674B0822C3F8542100BF00BF39
:1014500000BF00BF00BF00BF00BF00BF00BF00BF94
:1014600000BF00BF00BF00BF00BF00BF5E4A5F49B2
:101470005F48FFF7C5FF5F4A5F496048FFF7C0FF5D
:101480005F4CFFF7C7FF4FF470004FF0E0210023DF
:101490005C4AC1F8880D44F823200133B02BFAD1FF
:1014A000594B8021594A03F8011B9342FBD14FF05D
:1014B000E0254C4E4FF08039DFF880B1DFF880A195
:1014C0004FF0FF31C5F8084D0027C6F80491C6F863
:1014D00000B1C6F8F490C6F8F0A0D5F8243DDFF8C6
:1014E000648143F4E0234A4AC5F8243DD8F81C300F
:1014F00023F07F0343F04003C8F81C30D8F82430B1
:1015000023F07F0343F04003C8F824309166D1668E
:101510001167516700F088FF3E4B3F49A3633F4B83
:10152000E36363236B610323AF612B613C4BC5F81D
:10153000203DD5F8FC3D43F08073C5F8FC3D394BA8
:101540001A6842F001021A605B680B6000F0F4FF59
:10155000C6F804913448C6F800B1C6F8F490C6F84D
:10156000F0A001F01DFAD8F86C10304B304A41F46D
:101570004051C8F86C101F60C3F80871C3F81871A7
:10158000C3F82871C3F83871936BDB0708D442F6AF
:101590001563284951651365936B43F00103936309
:1015A000234A254C936843F00113936000F00AFF2F
:1015B00001F02AFA00F0EEFF00F030FF2368132B51
:1015C000FCD901F07FF82368B3F5967FFBD300F0D8
:1015D00029FF00F025FF01F0EFF901F01DFA30BFFF
:1015E000FDE700BF00800D405CD60200DC340060E7
:1015F00000000000C08E00203C0B036000000020B3
:10160000008C0020F187010000E400E0A0E400E08D
:1016100000C00A4009AF0100842901200DAF01007C
:1016200000002020001000E00046C32300400840D6
:1016300000400D400000C056882901201B101820D2
:101640000C0D111300C00F40054B4FF42A01054A41
:1016500005485A641864054A99639546FFF7E8FE01
:1016600000C00A40FFAFAAAA070020000000052022
:101670001BB9124B1B6F9B041ED400F03F000F4B95
:1016800022F0604221F0604140F489101867C3F8ED
:101690008010C3F890201A6F22F480521A671A6FD4
:1016A000002AFCDAD3F87011054A0A40C3F8702109
:1016B0001A6F22F480321A67704700BF00800D4015
:1016C000FF7F7FFFD0F88030B3F1E04F07D20548AD
:1016D0000549A0F108028B4288BF104670470348B5
:1016E000704700BF802A0060FFFF1F20702A006043
:1016F00010B582B0002403234FF4000101AA082092
:10170000019401F0A5F90F4BEF229DF804109DF80C
:1017100005E003F2E45C9DF8064003E063450DD06C
:1017200013F8342F9142F9D15A7818467245F5D101
:101730009A78A242F2D11C3002B010BD00201C30B9
:1017400002B010BD902A006030B5072285B0044673
:101750009F23314902ADD0F8CC000193CDE90212AC
:1017600001F036F9002194F8D00001F015F90423B6
:101770002A46D4F8CC000DEB030101F019F9012140
:1017800094F8D00001F008F9D4F8CC20D37CEBB168
:10179000DD0704D5906A4FF0E021C1F800019C07F5
:1017A00004D5D06A4FF0E021C1F80401580704D5F0
:1017B000106B4FF0E021C1F80801190704D5506BF8
:1017C0004FF0E021C1F80C01DB061ED4134BEF22D1
:1017D0009DF809109DF80AE003F2E45C9DF80B40C7
:1017E00003E063450DD013F8342F9142F9D15A78B4
:1017F00018467245F5D19A78A242F2D11C3005B054
:1018000030BD00201C3005B030BD926B4FF0E0239E
:10181000C3F81021DAE700BF80C3C901902A006035
:1018200030B5072285B049490446D0F8CC00CDE94F
:10183000011201F0CDF8002194F8D00001F0ACF8CD
:101840004349444A322348681268120C03FB02F2EF
:10185000414B5208A3FB0232120A4B681B1A9A42F0
:10186000FBD8D4F8CC509F232A685366D36D13F469
:10187000F81FFBD0536F0DF103010DF10C0C00208C
:101880005066D36D13F4F81FFBD0536F01F8013F7E
:101890006145F5D194F8D030304A190102EB0313B9
:1018A0005258DB68C2F88430EB7CEBB1DC0704D51E
:1018B000A96A4FF0E022C2F80011980704D5E96A3E
:1018C0004FF0E022C2F80411590704D5296B4FF0FC
:1018D000E022C2F808111A0704D5696B4FF0E02224
:1018E000C2F80C11DB0620D49DF804107F2925D006
:1018F0009DF805409DF80650194BEF2203F2E45C79
:1019000003E063450DD013F8342F8A42F9D15A7899
:101910001846A242F5D19A78AA42F2D11C3005B0FD
:1019200030BD00201C3005B030BDAA6B4FF0E02365
:10193000C3F810219DF804107F29D9D19DF80A1011
:101940009DF80B409DF80C50D6E700BF80C3C9013D
:10195000001000E0AC5F0020112397081C4F00200E
:10196000902A0060F0B505460024084685B0C5F809
:10197000CC20012185F8D0002C7101F00DF8012157
:1019800095F8D00001F000F8D5F8CC0001F050F83F
:101990005D4907229F23D5F8CC000193CDE90212BF
:1019A00004AA12E9060001F013F8214695F8D000C8
:1019B00000F0F2FF0423D5F8CC000DEB0302114632
:1019C00000F0F6FF012195F8D00000F0E5FFD5F812
:1019D000CC20D37CEBB1DF0704D5906A4FF0E02137
:1019E000C1F800019E0704D5D06A4FF0E021C1F88C
:1019F00004015C0704D5106B4FF0E021C1F8080129
:101A0000180704D5506B4FF0E021C1F80C01D9063E
:101A100061D43E4CEF239DF805209DF8060004F2AA
:101A2000E4519DF807C003E08C4251D014F8343FD4
:101A30009A42F9D163788342F6D1A3786345F3D112
:101A400005F108067822002105F18007304600F0F4
:101A5000D3FF3822002105F1940000F0CDFF2C4B7C
:101A60003046C5E920532B4BC5F888302A4BC5F8C2
:101A70008C302A4BC5F89030A388C5E92533A1687E
:101A8000C5F89C102269C5E92A33B2FBF1F2FF23A5
:101A9000C5F8A02001223946C5F8BC304FF4C87300
:101AA000C5F8A430E37885F8D1306369C5F8D4303F
:101AB000A369C5F8D830237B2A7185F8D23000F0AD
:101AC00097FF00280DDB012318466B7105B0F0BDB0
:101AD000002005B0F0BD926B4FF0E023C3F8102159
:101AE00097E73946304600F0A7FF002805DB394666
:101AF000304600F07DFF0028E5DA00231846C5F8DF
:101B0000CC3005B0F0BD00BF80C3C901902A006091
:101B100079080100C90A01004D0C01009102010081
:101B2000F0B505460024084685B0C5F8CC20012153
:101B300085F8D0002C7100F02FFF012195F8D0001E
:101B400000F022FFD5F8CC0000F072FF642000F016
:101B50007BFF07227F49D5F8CC00CDE9011200F0C8
:101B600037FF214695F8D00000F016FF7A497B4AEE
:101B7000322348681268120C03FB02F2784B5208B9
:101B8000A3FB0232120A4B681B1A9A42FBD8D5F803
:101B9000CC609F2332685366D36D13F4F81FFBD0DB
:101BA000536F0DF1030103AC00205066D36D13F4A5
:101BB000F81FFBD0536F01F8013F8C42F5D195F827
:101BC000D030684A190102EB03135258DB68C2F89F
:101BD0008430F37CEBB1DA0704D5B16A4FF0E02230
:101BE000C2F800119F0704D5F16A4FF0E022C2F855
:101BF00004115C0704D5316B4FF0E022C2F80811E4
:101C0000180704D5716B4FF0E022C2F80C11D90609
:101C100067D49DF804207F2A6CD09DF805009DF8BC
:101C20000660514CEF2304F2E45103E0A14255D089
:101C300014F8343F9A42F9D163788342F6D1A378FD
:101C4000B342F3D105F108067822002105F180079F
:101C5000304600F0D1FE3822002105F1940000F05A
:101C6000CBFE424B4248C5E92053424BC5F8883071
:101C7000414BC5F88C30414BC5F89030A388C5E97D
:101C80002533A168C5F89C102269C5E92A33B2FB47
:101C9000F1F2FF23C5F8A02001222221C5F8BC30B3
:101CA0004FF4C873C5F8A430E37885F8D130636980
:101CB000C5F8D430A3692A71C5F8D83000F090FE79
:101CC0002F4800F071FE3946304600F091FE0028A2
:101CD00017DB012318466B7105B0F0BD002005B07D
:101CE000F0BDB26B4FF0E023C3F810219DF8042043
:101CF0007F2A92D19DF80A209DF80B009DF80C6078
:101D00008FE729211F4800F06BFE1D4800F04CFEB4
:101D10003946304600F090FE002818DB2B211A4887
:101D200000F05EFE164800F03FFE3946304600F0F7
:101D30005FFE0028CDDA1C21144800F051FE104847
:101D400000F032FE00231846C5F8CC30C4E710215D
:101D50000F48F2E780C3C901001000E0AC5F00202B
:101D6000112397081C4F0020902A00605D0D010090
:101D7000FC560020DD0E01007510010095020100E7
:101D8000B05F0020205700204C57002078570020DB
:101D90008457002070B5057982B0BDB143790446FF
:101DA00000F10806B3B904F180013046019100F05A
:101DB00043FE00280ADB0199304600F019FE002896
:101DC00004DB01232846637102B070BD002528465C
:101DD00002B070BD304600F023FE00236371E2E7DD
:101DE0002DE9F84F037913B90020BDE8F88FD0F83A
:101DF000A08005460E4601214FEAD8001446013066
:101E000000F0EAFD07460028EED0D5F8940000F077
:101E1000DBFD8246002850D0B8F1000F05D0294BD9
:101E20000022C3F80080284B1A603A46274905F182
:101E3000080000F0ADFD00282CDBD5F8A01086BB13
:101E4000A14227D981B30E464FF000084FF0010997
:101E500005F1800B04E00134A1421BD9B04523D227
:101E6000E30804F00702FB5C09FA02F21340F2D126
:101E700021465246584600F0A3FD30B92146D5F818
:101E80008C30584608F101089847D5F8A010013465
:101E9000A142E3D8384600F0BBFD504600F0B8FD43
:101EA000A2E7A142D0D8F5E7384600F0B1FD504690
:101EB00000F0AEFD2046BDE8F88F384600F0A8FDE2
:101EC000504692E7E8BC0020ECBC0020F104010081
:101ED0002DE9F84F05460079002857D06B798A46DE
:101EE0009146002B4BD1D5F8A040294BD5F8940052
:101EF000A3FB043800F068FD06464FEA98186CB35F
:101F0000B9F1000F18BFBAF1000F05F180074FF0CB
:101F1000000414BF4FF0010B4FF0000BBBF1000F9A
:101F20000AD051464846B4FBF8F308FB13431BB9EB
:101F3000D9F800301B6898472146012332463846BD
:101F400016B100F03DFD20B9D5F88C302146384659
:101F500098470134D5F8A030A342DFD8304600F0CE
:101F600057FDB9F1000F05D0BAF1000F02D0484675
:101F700000F01AFD2846BDE8F84FFFF70BBF05F14A
:101F8000080000F04DFD00236B71ACE7BDE8F88F51
:101F90008988888800217C4A0223F0B57B4C83B075
:101FA000017105467A48019194617A4CD36103230B
:101FB000C2F880020820C2F8841201AA4FF400017E
:101FC00000F046FD9DF804209DF8050004F2E45160
:101FD0009DF806C0EF2304E08C4200F0B88014F8AE
:101FE000343F9A42F8D163788342F5D1A3786345B0
:101FF000F2D105F108077822002105F18006384664
:1020000000F0FAFC3822002105F1940000F0F4FC05
:10201000614B0120C5E92053604BC5F88830604B07
:10202000C5F88C305F4BC5F89030A388C5E92533DF
:10203000A168C5F89C102269C5E92A33B2FBF1F208
:10204000FF23C5F8A020504AC5F8BC304FF4C87330
:10205000C5F8A430E17885F8CC106369C5F8D030B4
:10206000A369C5F8D430236928719B0A5366474B8E
:1020700093610223D3614FF48A63C2F8A0324FF414
:102080000003C2F8A0304FF42023C2F8A430C2F8F5
:10209000B0005369D807FCD51B075BD43A4A01232B
:1020A00041485361C2F8A0020020C2F8A4024FF4D4
:1020B0000000C2F8A0004FF42020C2F8A400C2F82B
:1020C000B0305369D807FCD51B0701D508235361ED
:1020D0002D4B012218294FF000015A613DD0334A9F
:1020E000C3F89022324AC3F89422324AC3F89812B5
:1020F000C3F8B02242F20122C3F8B4222E4A207B58
:102100000243C3F8C022C3F8C4121F4B40F2064278
:1021100031463846C3F8A022284AC3F8D02200220C
:10212000C3F8D42200F064FC002804DB0123184625
:102130006B7103B0F0BD3146384600F07DFC0028DD
:1021400005DB3146384600F053FC0028EEDA00206B
:1021500003B0F0BD08235361A0E7194AC3F89022E9
:10216000134AC3F89422174AC3F89812C3F8B0224E
:1021700042F20122C3F8B422134A207B0243C3F87F
:10218000C022C3F8C412C0E700402A40F05AF05AF7
:102190009F040124902A0060790301006511010069
:1021A0004D12010099020100310402046C04200860
:1021B0000832012634042008000420080504012404
:1021C0006B04180832041808000418084FF6FF734F
:1021D000364A2DE9F0410B44354D00261D4006716D
:1021E0001660002D58D0334BB3F5F81F54D2C3F509
:1021F000F8139D4250D8304F00F10808044631468C
:102200007F1B4046ED0B1760782200F0F5FB2B4B4F
:102210002B4A4FF44871C4F884308023C4F88820D6
:102220004046284AC4F89430C4F89830C4F8A8301E
:10223000C4F8AC300123C4F8A05004F18005C4F800
:10224000A410FF21C4F88C2023714FF400431E4AD0
:10225000C4F8BC102946C4F88070C4F8B060C4F853
:10226000B460C4F8B860C4F8C060C4F8C460C4F80E
:10227000C860C4F89020C4F89C3000F0B9FB002876
:1022800004DB012318466371BDE8F081294640460E
:1022900000F0D2FB002802DA0020BDE8F0812946D8
:1022A000404600F0A5FB0028EBDAF5E7A4940020F7
:1022B0000000FFFF00A8030000001F60A103010051
:1022C000C1030100E10301009D020100B1F5607F3F
:1022D000F0B50E468DB028BF4FF460760F46054628
:1022E00072B62E4B00247022186021462C4B2D48CC
:1022F0001C8000F081FBCFB121462A484FF0010C31
:102300004A0901F01F03013150F822400CFA03F38F
:102310008E4243EA040340F82230F1D828460023D5
:102320004380013300F582709E42F9D81E4C257817
:1023300015B162B60DB0F0BD082000F061FB1B4B7B
:1023400080220646009302A90693194B027105608C
:1023500008A8029300F048FB06A9164A304600F090
:102360006FFB069B08A8DB689847009B02A8DB6808
:1023700098472378002BDCD10F4B104AC3F8582123
:102380000F49D0204FF0E023402281F84600C3F8E7
:1023900008210123237062B60DB0F0BDC093002068
:1023A00074BD0120C893002094BD0120D8400020B6
:1023B000996C01001B100100008C0020A56C01002D
:1023C00000E400E0104BA020104AD96E41F44031E7
:1023D00010B4D96640F23764D96E41F44071D966C1
:1023E00054649064936C1B06FCD4094A40F2376134
:1023F000A02351649364936C13F08003FBD1054ACE
:1024000013705DF8044B704700C00F4000400C4053
:1024100000800C40ABBD0120704700BF704700BF7B
:10242000704700BF00BF704710B44FF0E023002199
:1024300010243148C3F8941DC3F89C4D1124C3F8EF
:10244000A00D2E48C3F89C4D1224C3F8A00D2C48B3
:10245000C3F89C4D2B4AC3F8A00D2B4C42F015023B
:102460002A48C3F89C4DC3F8A00D294C2948C3F84D
:102470009C4DC3F8A00D284CC3F89C2D2748284A32
:10248000C3F8A04DC3F89C0DC3F8A02D02F5A022FF
:10249000244C0C322448C3F89C4DC3F8A02D234A89
:1024A000C3F89C0D224CC3F8A02D02F14062C3F882
:1024B0009C4D2048C3F8A02D0C32C3F89C0DC3F8E6
:1024C000A02D00BF00BF00BF00BF00BF0122C3F8A6
:1024D000942DBFF34F8FBFF36F8FC3F8501FBFF31F
:1024E0004F8FBFF36F8FD3F8142D5DF8044B42F478
:1024F0004032C3F8142D70473F0000102500080734
:102500000900100020BE0120130020002100020756
:1025100014000020250008130900001016002020D8
:1025200027000B1317000040180000602F000B0756
:10253000190000701A000080F0B4154A40274FF4CB
:1025400080314FF480564FF400554FF4404443F22D
:102550004200136913F0020F0ED113F4005F0FD085
:1025600013F4805F0ED0002BF3DA13F4803F0BD10D
:102570005B060BD5F0BC7047946151619061E8E750
:102580005561E6E75661E4E79161E2E75761E0E70C
:1025900000800D403F4A03203F49F3EE095AD2F82C
:1025A00080304FF0000C9FED3D6A23F001039FED5A
:1025B0003C5A30B4C2F88030C2F89000D1F8E01034
:1025C000384DCBB2384C39482B6007EE903A0B0DA2
:1025D000C1F30B21F8EEE77A06EE903A07EE101AF7
:1025E000334BB8EEC77A2160F8EEE66A314937EE30
:1025F000C66A37EEC55A76EEC76A77EEE57A26EEFA
:10260000266AC3ED006A25EE265AD2F8803067EEBE
:10261000A64AC0ED007AC6EE275A274885EE276AFB
:10262000C4EEA76A75EE875AFCEEE55A36EE076AE5
:1026300015EE904ABCEEC66A43EA045376EE877AFA
:10264000C2F8803016EE103AD2F89041FCEEE77AEC
:1026500001EA0341214317EE903AC2F89011C3F307
:102660000B03D2F890110B431449C2F89031D2F801
:10267000803043F00203C2F88030114B80F840C034
:10268000C1F840314FF0E023012230BCC3F80821EB
:10269000704700BF00810D4000441F400000AA4267
:1026A0000000B442E4200120E0200120E8200120C5
:1026B000EC2001200000FF0F00E400E0008C00206F
:1026C000DD890100314B40F6617210B5C3F820215D
:1026D00040F2044400F0A8F92D4A2E49D2F8803087
:1026E0002D4843F00303C2F880302C4BC1F8604101
:1026F00002681A4203D1D1F8A8319A071BD0254AA3
:102700004FF00041244B5963D2F8403143F00203AB
:10271000C2F84031D2F840319B07FBD44FF400306F
:102720004FF0E0211C4B4FF00042C1F88C02192001
:102730009A6300F089F9184A4FF08040154C002147
:1027400090630A20164B11604FF49062C4F8A80100
:10275000184600F051F94FF4800203464FF481000F
:1027600040F243111860C4F858311A640D4B0E4AF8
:10277000C4F84811C3F804224FF0E0224FF40031AE
:102780000123C2F80C11C4F8403110BD00800D4087
:1027900000C00F4000002E4000900D40001C1E00A5
:1027A00000000020008C0020C58C010008B50E4BF5
:1027B0001B6E9B0700D4FBBE72B60C4B00200C4A6C
:1027C000C3F8400103F160430A49A3F55F23116494
:1027D0009D46BFF34F8F4FF400130748074ADB694C
:1027E00002609B68984700BF00441F4000002E40D5
:1027F00000C00A400300200000802020000012EBEF
:1028000043690A4A03EB011010B4037A084C02EB47
:102810000313D3E901321460C2681A6003690BB173
:1028200042691A605DF8044B704700BF1C4F0020DE
:1028300061F801004369027E03EB021292F808C0BE
:102840008C451CD01A7AFF2A19D0914210B5044643
:1028500016D01A7EFF2A06D00121D3E90023126880
:102860001A4201D1217610BD064B0522204603EB0A
:102870000C135B681A60FFF7C3FF2176F3E770471C
:102880000021EAE71C4F002043690A4A03EB0110CC
:1028900010B490F82830084C02EB0313D3E901324E
:1028A0001460C26A1A60036B0BB1426B1A605DF868
:1028B000044B70471C4F002061F801004369427EC1
:1028C00003EB021292F828C08C451ED093F8282002
:1028D000FF2A1AD0914210B5044617D093F8382039
:1028E000FF2A06D00121D3E9002312681A4201D140
:1028F000617610BD064B0522204603EB0C135B6886
:102900001A60FFF7C1FF6176F3E770470021EAE73D
:102910001C4F0020164942698B6B23F47C0343F45F
:10292000802370B58B630446124DD2E900130A6808
:102930001A4303690A60022200211A610E4A1961D2
:102940009A6401225A629D624FF43035DD624FF085
:1029500001159E6C1E6519629D651A61017EFFF767
:102960004FFF617E2046BDE87040FFF78DBF00BF7E
:1029700000C00F40B80B05053B372819F8B500BF5C
:10298000F8BC08BC9E4670475FF800F0AD800100BF
:102990005FF800F0E15201005FF800F035800100BF
:1029A0005FF800F0497C01005FF800F0E974010075
:1029B0005FF800F09D2802005FF800F071900200BF
:1029C0005FF800F0F90301005FF800F05D88020095
:1029D0005FF800F0450601005FF800F0F99E020084
:1029E0005FF800F0F1AC01005FF800F019010000A1
:1029F0005FF800F0F14501005FF800F0758F02000C
:102A00005FF800F0658401005FF800F0D9860100EE
:102A10005FF800F06D8802005FF800F0218301008C
:102A20005FF800F0494701005FF800F0D19C010019
:102A30005FF800F0692602005FF800F01945010018
:102A40005FF800F05D7201005FF800F0397F01006F
:102A50005FF800F0A1020100450000004DB3000046
:102A600041EC00005DF10000D173010061B1010093
:102A70004558544D454D0000444D414D454D0000D5
:102A80004D454D4F5259000050524F4752414D0055
:102A9000EF40151800010000008000005200000007
:102AA00000002000B80B0000006A180057323551B2
:102AB00031364A562A512F57323551313646560053
:102AC00000000000EF401618000100000080000028
:102AD0005200000000004000B80B0000006A18001F
:102AE0005732355133324A562A512F5732355133E6
:102AF0003246560000000000EF40171800010000A9
:102B000000000100D800000000008000B80B0000A9
:102B100080841E005732355136344A562A512F5779
:102B2000323551363446560000000000EF40181888
:102B30000001000000000100D800000000000001BA
:102B4000B80B000080841E00573235513132384AAC
:102B5000562A512F5732355131323846560000002F
:102B6000EF4019200001000000000100DC0000001F
:102B700000000002B80B000080841E00573235515F
:102B80003235364A562A510000000000000000008D
:102B900000000000EF4020200001000000000100C4
:102BA000DC00000000000004AC0D000080841E006A
:102BB000573235513531324A562A51000000000053
:102BC0000000000000000000EF4021200001000094
:102BD00000000100DC00000000000008AC0D000057
:102BE00080841E005732355130314A562A51000038
:102BF0000000000000000000000000006206131842
:102C0000000100000010000020000000000008008B
:102C100088130000E093040053535432355046307B
:102C200034304300000000000000000000000000FD
:102C3000EF7017180001000000000100D80000002C
:102C400000008000B80B000080841E005732355110
:102C500036344A562A4D2028445452290000000098
:102C600000000000EF7018180001000000000100D3
:102C7000D800000000000001B80B000080841E0096
:102C8000573235513132384A562A4D202844545251
:102C90002900000000000000EF7019200001000072
:102CA00000000100DC00000000000002B80B000082
:102CB00080841E00573235513235364A562A4D200F
:102CC000284454522900000000000000EF80192021
:102CD0000001000000000100DC0000000000000214
:102CE000B80B000080841E00573235513235364A09
:102CF000572A4D0000000000000000000000000006
:102D0000EF7020200001000000000100DC00000046
:102D100000000004AC0D000080841E0057323551C5
:102D20003531324A562A4D20284454522900000099
:102D3000000000001F8401180001000000100000C6
:102D40002000000000000800C4090000E093040017
:102D50004154323553463034310000000000000049
:102D600000000000000000000140141800010000F5
:102D70000010000020000000000010008813000078
:102D8000E0930400533235464C3230384B0000009B
:102D9000000000000000000000000000C840131800
:102DA00000010000001000002000000000000800EA
:102DB00060090000E0930400474432355134304349
:102DC0000000000000000000000000000000000003
:102DD000C84014180001000000100000200000008E
:102DE0000000100060090000E09304004744323501
:102DF00051383043000000000000000000000000D7
:102E000000000000C840151800010000008000000C
:102E10005200000000002000A00F0000006A18000F
:102E200047443235513136450000000000000000B3
:102E30000000000000000000C8401618000100005B
:102E4000008000005200000000004000A00F0000C1
:102E5000006A180047443235513332450000000003
:102E6000000000000000000000000000C84017182B
:102E70000001000000000100D800000000008000F8
:102E8000A00F0000C0C62D004744323551363445EE
:102E90000000000000000000000000000000000032
:102EA000C84018180001000000000100D800000010
:102EB00000000001A00F0000C0C62D0047443235BD
:102EC00051313238450000000000000000000000D1
:102ED00000000000C84019200001000000000100AF
:102EE000DC00000000000002D0070000006A1800AB
:102EF00047443235513235364500000000000000AD
:102F00000000000000000000032EC2184000000076
:102F1000800000000000000000001000FA00000027
:102F2000B00400004359313542313038514E000071
:102F3000000000000000000000000000C224001893
:102F400040000000800000000000000000000200BF
:102F5000FA000000B0040000464D32355631302DE5
:102F6000470000000000000000000000000000001A
:102F7000C224011840000000800000000000000092
:102F800000000200FA000000B0040000464D323597
:102F90005631302D472028726576203129000000F7
:102FA00000000000AE83091840000000800000000F
:102FB0000000000000000200FA000000B004000061
:102FC0004D523435563130304100000000000000D1
:102FD0000000000000000000C226081840000000A9
:102FE000800000000000000000000800FA0000005F
:102FF000B0040000435931354231303451000000F3
:10300000000000000000000000000000602AC2185C
:1030100040000000800000000000000000000400EC
:10302000FA000000B004000043593135423130321B
:10303000510000000000000000000000000000003F
:10304000602AC2184000000080000000000000005C
:1030500000000400FA000000B004000043593135BC
:10306000423130325100000000000000000000003A
:1030700000000000047F48184000000080000000AD
:103080000000000000000400FA000000B00400008E
:103090004D4238355253324D5441504E4600000097
:1030A00000000000000000002A03540065006500D5
:1030B0006E007300790020004D0049004400490073
:1030C0007800310036002F0041007500640069006F
:1030D0006F00000018035400650065006E00730067
:1030E00079006400750069006E006F000403090434
:1030F00009027501060100C032080B00020202013C
:10310000000904000001020201000524001001056D
:10311000240101010424020605240600010705829A
:103120000310001009040100020A00000007050353
:10313000024000000705830240000009040200026B
:1031400001030000072401000143000624020101DD
:103150000006240202020009240301030102010007
:1031600009240302040101010006240201050006EE
:1031700024020206000924030107010601000924B4
:1031800003020801050100090504024000000000D7
:103190000625010201050905840240000000000621
:1031A0002501020307080B030301010000090403C2
:1031B0000000010100000A240100013E0002040594
:1031C0000C2402010206000203000000092403028D
:1031D00001010001000C24020301010002030000B0
:1031E000000A24063103010102020009240304023B
:1031F0000600310009040400000102000009040473
:10320000010101020000072401020301000B240256
:10321000010202100144AC0009058509B400010057
:10322000000725010000000009040500000102005C
:103230000009040501020102000007240103030143
:10324000000B2402010202100144AC00090505052F
:10325000B400010086072501000000000905861161
:10326000030001050000000009027501060100C00D
:1032700032080B00020202010009040000010202F0
:1032800001000524001001052401010104240206A7
:10329000052406000107058203100005090401004A
:1032A000020A00000007050302000200070583026E
:1032B00000020009040200020103000007240100CB
:1032C0000143000624020101000624020202000953
:1032D0002403010301020100092403020401010186
:1032E0000006240201050006240202060009240348
:1032F0000107010601000924030208010501000974
:10330000050402000200000006250102010509056E
:1033100084020002000000062501020307080B03D7
:1033200003010100000904030000010100000A2458
:103330000100013E000204050C2402010206000205
:10334000030000000924030201010001000C240213
:103350000301010002030000000A240631030101F9
:1033600002020009240304020600310009040400DB
:103370000001020000090404010101020000072409
:1033800001020301000B2402010202100144AC00FF
:1033900009058509B40004000007250100000000AC
:1033A00009040500000102000009040501020102F0
:1033B0000000072401030301000B24020102021094
:1033C0000144AC0009050505B40004008607250189
:1033D0000000000009058611040004070000000039
:1033E0000A060002EF0201400100000080C00F4009
:1033F000000000031900000010000000E8841F40D6
:1034000001000000FF000000FF00000000000000BD
:10341000000000001800000010000000E4841F40BD
:1034200001000000FF000000FF000000000000009D
:10343000000000001F0000008525020070C00F4042
:10344000000C00001100000011000000E0841F408B
:10345000020000002400000012000000E0841F4071
:10346000010000001000000011000000DC841F407B
:10347000020000002500000012000000DC841F4054
:10348000010000001E0000007925020070C00F40FE
:10349000C00000001200000013000000D0841F4094
:1034A00001000000FF000000FF000000000000001D
:1034B000000000001300000013000000CC841F4037
:1034C00001000000FF000000FF00000000000000FD
:0C34D000000000001C0000006D25020040
:1034DC0000000000000000000000000000000000E0
:1034EC0000000000000000000000000000000000D0
:1034FC000548064B1B1AD90F01EBA301491002D04A
:10350C00034B03B118477047C08E0020C08E0020BB
:10351C000000000008B5054B1BB105490548AFF389
:10352C000080BDE80840FFF7E3BF00BF00000000CB
:10353C00140D012000A8036000207047006910B131
:10354C000368DB6818477047006910B103681B6992
:10355C0018477047006910B103685B6918474FF052
:10356C00FF307047006910B103689B6918477047BA
:10357C00006980B10368012200B583B09B680DF12E
:10358C000701984720B19DF8070003B05DF804FBD4
:10359C004FF0FF30F9E74FF0FF30704700B500698E
:1035AC0083B08DF8071028B1036801220DF10701D3
:1035BC00DB68984703B05DF804FB00BF4FF0FF30A9
:1035CC00704700BFC3680BB1012070470069003819
:1035DC0018BF0120704700BF0069003818BF0120D8
:1035EC00704700BF036818470B680360704700BF43
:1035FC000B680360704700BF704700BF704700BF87
:10360C00704700BF704700BF704700BF704700BFD6
:10361C00704700BF704700BF704700BF704700BFC6
:10362C00704700BF704700BF0368086811681847EF
:10363C008C46C168134619B16246806814F028BEE6
:10364C000846704710B5044617F0F2F8204610BD36
:10365C0038B5054CA4F12005083C204617F0E8F8D5
:10366C00AC42F9D138BD00BFA886002038B5054C56
:10367C00A4F12005083C204617F0DAF8AC42F9D149
:10368C0038BD00BFC8860020C16808B5029B09B1CF
:10369C00022B01D9002008BD806814F0FBFDC0434B
:1036AC00C00F08BD30B5042285B000240D46009231
:1036BC0000F1180103AB63228068039414F02EFD13
:1036CC00042802D0204605B030BD03980028FAD05B
:1036DC00294617F063FA012005B030BD30B504223D
:1036EC0085B000240D46009200F1180103AB6D2249
:1036FC008068039414F012FD042802D0204605B013
:10370C0030BD03980028FAD0294617F047FA01205B
:10371C0005B030BD016911B1806815F025B870474E
:10372C000B69F0B50C46E3B00546002B74D00021B4
:10373C004FF4847220A828F085FE20AA2169A06885
:10374C0014F09EFF002842F62E6259DDBDF8883039
:10375C002E2BECD093424BD0802204F118016846FA
:10376C0026F01EF968462AF0D3FF00285FD00DEB37
:10377C00000313F8013C2F2B01D07D2874D90DEBDD
:10378C000003C0F1800222A9184626F009F99DF821
:10379C008060012E4ED0342028F0C8FA064600284E
:1037AC007BD001466A46A06814F008FF002824DB91
:1037BC00982018F0BFF8A3680661694600260446F5
:1037CC00802283604660C660384B04F11800236089
:1037DC0026F0E6F863684FF47A71354A01332846CF
:1037EC006E602E73A9602C6163602A6063B0F0BDBB
:1037FC009DF88A30002B9AD0AEE7304628F09EFA1E
:10380C0000234FF47A712A4A2B732A602B61C5E985
:10381C000131284663B0F0BD4FF47A71244A4360FD
:10382C000373816002600361284663B0F0BD80229F
:10383C006B46A8E7542028F079FA074620B30146D6
:10384C0033466A46A06814F0F1FC002818DB982077
:10385C00002618F06FF8A36869460446802283603E
:10386C00C76046600661AFE72F23421C0DF800309D
:10387C0000230DF802300DEB0203C2F1800282E747
:10388C00384628F05BFABBE74FF47A72084B686055
:10389C002873AA602B602861BBE74FF47A72044B43
:1038AC0068602873AA602B602861B2E7883E00200C
:1038BC00E83F002010B500F118042F21204626F017
:1038CC000FFA00B1441C204610BD00BFC16810B5F2
:1038DC00044639B1806814F0B3FCE06828F02EFA85
:1038EC000023E360216939B1A06814F0B5FE2069AA
:1038FC0028F024FA0023236110BD00BFC16839B140
:10390C00806808B514F07CFD20EAE070C11708BD92
:10391C0008467047C16839B1806808B514F06EFD6F
:10392C0020EAE070C11708BD08467047C16881B134
:10393C0038B50446806814F061FD051E07DBD4E938
:10394C00020114F05DFD002801DB401B38BD002096
:10395C0038BD0020704700BFC16831B1806808B520
:10396C0014F0C2FCC043C00F08BD0846704700BF2E
:10397C00C16811B1806814F087BC704710B5C46879
:10398C000CB9204610BD134680680A46214614F037
:10399C007DFC20EAE07010BD704700BF012A02D107
:1039AC00016000207047022A05D0032AF9D0002AB2
:1039BC00F7D10260F5E70B680360F2E7704700BFD0
:1039CC00704700BF704700BF044808B516F030FFC1
:1039DC0000210C20BDE8084018F042B82C860020CD
:1039EC008B79503B1B061FD470B5044684B0084637
:1039FC0017F080F923680F4A5B6BA668934203901B
:103A0C0014D118342F21204626F06AF900B1441C39
:103A1C00042503AB6D2221463046009514F0C8FBFB
:103A2C00C043C00F04B070BD0020704720469847BB
:103A3C000446EDE7E50300008B79503B1B061FD4D1
:103A4C0070B5044684B0084617F054F923680F4A41
:103A5C005B6BA6689342039014D118342F21204637
:103A6C0026F03EF900B1441C042503AB6322214629
:103A7C003046009514F09CFBC043C00F04B070BDE1
:103A8C0000207047204698470446EDE7E503000008
:103A9C00836810B5044613B10322014698472046AB
:103AAC0010BD00BF0B4BC16810B50446036039B1A3
:103ABC00806814F0C5FBE06828F040F90023E3604F
:103ACC00216929B1A06814F0C7FD206928F036F9E6
:103ADC00204610BD883E00200D4BC16810B5044631
:103AEC00036039B1806814F0ABFBE06828F026F96C
:103AFC000023E360216929B1A06814F0ADFD2069B1
:103B0C0028F01CF92046982117F01CFF204610BD08
:103B1C00883E002010B5094B04460069236058B15B
:103B2C004368013B43603BB90368DB6A98472069F3
:103B3C0010B103685B689847204610BDE83F002031
:103B4C0010B50B4B04460069236058B14368013B28
:103B5C0043603BB90368DB6A9847206910B103687E
:103B6C005B6898472046142117F0ECFE204610BDE8
:103B7C00E83F002010B584B004460391029216F081
:103B8C00FDFB00222046DDE90231009216F06AFCB2
:103B9C00204604B010BD00BF10B5002304461046EB
:103BAC000D4A617223722260C4E9033019B18A0094
:103BBC00194628F047FC094A136853B11A465B6949
:103BCC00002BFBD154610023204663616360A37218
:103BDC0010BD1460F7E700BF7C3E0020C4930020AA
:103BEC0003460022134910B4134C43F8184B4FF4FE
:103BFC00807482610481C0E903230B68C3B11A4647
:103C0C005B69002BFBD1506100230C4A4FF4681404
:103C1C000B4943614360837202604FF0005203779B
:103C2C00084BC0E90A41C0E90C235DF8044B70470E
:103C3C000860E9E7C49300207C3E0020883F002008
:103C4C000E00C10076061C0010B541F2CC530446A0
:103C5C00134800222344134920604FF48070C4E9B8
:103C6C000323208104F580500B68C0F8CC25ABB140
:103C7C001A465B69002BFBD1546100210A4B41F2BF
:103C8C008C5204F1400061616160A1722360217665
:103C9C006183E16128F0D6FB204610BD0C60ECE797
:103CAC007C3E0020C4930020143F002003460022D9
:103CBC00144910B4144C43F8344B4FF40074C0E95D
:103CCC0003230B680481C0E90D22CBB11A465B6952
:103CDC00002BFBD150610D4900230D4A0D4C0160A6
:103CEC004FF4805182610C4A436143608372C0E996
:103CFC000741C0E909235DF8044BC0E90B33704759
:103D0C000860E8E7C49300207C3E0020D03F0020F0
:103D1C0090298F0460EA8E0480F9855A00220346AC
:103D2C0013494FF4806C10B4124C43F8284BA0F894
:103D3C0008C0C0E903230B68C0E90A22C0E90C22C1
:103D4C009BB11A465B69002BFBD1506100224FF4EA
:103D5C00803309495DF8044B426142608272016014
:103D6C00C0E90633C0E9083370470860EEE700BFCE
:103D7C00C49300207C3E0020703E0020134900229A
:103D8C0038B5134D04460B68056002610281C260B0
:103D9C00D3B11A465B69002BFBD1546100230D494A
:103DAC004FF0804204F138006360A3722160A38657
:103DBC00C4E90533C4E90733C4E90932C4E90B3358
:103DCC000FF0D4FB204638BD0860E7E7C493002011
:103DDC007C3E00207C3F002038B500220446034680
:103DEC001549164D4FF4007043F8185B2081C4E957
:103DFC0003230B68C4E90622DBB11A465B69002B6E
:103E0C00FBD1546100230E494FF4004204F50F70AE
:103E1C0063616360A37221602363C4F83432A4F835
:103E2C003832C4E90833C4E90A230FF09FFB20465B
:103E3C0038BD0C60E6E700BFC49300207C3E002038
:103E4C00DC3F00200D49002210B40B680C4C0261C1
:103E5C0004600281C2607BB11A465B69002BFBD106
:103E6C0050610023074A5DF8044B43614360837241
:103E7C0002600376C36170470860F2E7C4930020C8
:103E8C007C3E0020AC3F00200F49002210B40B6890
:103E9C000E4C026104600281C2609BB11A465B69E0
:103EAC00002BFBD150610A4900220A4C0B8804609C
:103EBC0001335DF8044B4261426082720B80C0E9B1
:103ECC00062370470860EEE7C49300207C3E002078
:103EDC0080BD0120A03F00202DE9F0431E464B7908
:103EEC00C7B004465BB94FF47A71844A43600373DC
:103EFC00816002600361204647B0BDE8F0830D4647
:103F0C001746EEB1542027F011FF8046002800F030
:103F1C00DF800835014640F203133A46284614F078
:103F2C0085F9002846DA00234FF47A71734A20464B
:103F3C00237322602361C4E9013147B0BDE8F083EB
:103F4C000835114604AA284614F0D2F800287ADB6A
:103F5C009DF81080B8F1010F00F08180342027F01B
:103F6C00E5FE8046002800F0B38001463A4628461C
:103F7C0014F024FB0028C0F29880982017F0DAFC8B
:103F8C00394680220746C0F81080C660C0E901653A
:103F9C005B4B07F118003B6025F002FD7B684FF48A
:103FAC007A71564A013366602673A16027617B6083
:103FBC002260A0E700234FF00409039317F06EFE74
:103FCC0003AB0490632239462846CDF8009014F0D8
:103FDC00A5F8484509D004AB632239462846CDF8EC
:103FEC00009014F0E5F8002857DB042204AB3946A6
:103FFC00284600926D2214F0DBF8002859DB012EC4
:10400C005FD0982017F096FC3D4B85600025064646
:10401C003946C0F80C8080224560183040F8085CA6
:10402C0040F8183C25F0BCFC73684FF47A71334AA5
:10403C0001332046656073602573A16026612260A0
:10404C0047B0BDE8F0834FF47A722C4B2046666083
:10405C002673A2602360266147B0BDE8F08354202C
:10406C0027F064FE814600283ED0014643463A467E
:10407C00284614F0DBF800280BDB982017F05AFCCC
:10408C00394680220746C0F80C900661C0E90165EC
:10409C007EE7484627F052FE45E7222119481AF0E0
:1040AC008FF8194816F088FC9FE7404627F046FE2B
:1040BC0039E7222115481AF083F8134816F07CFCD6
:1040CC009DE7022300224146284614F0E3F898E7C6
:1040DC004FF47A72094BC4F8048084F80C80A26007
:1040EC002360C4F8108006E74FF47A72034B6060CB
:1040FC002073A26023602061FDE600BFE83F002032
:10410C00883E0020F03B0020B05F0020143C0020D3
:10411C002DE9F0419DF818709DF81CE0EFF3108626
:10412C0072B6194D194C95F800C024780CF1010C9D
:10413C005FFA8CFC644521D095F80080144C5FFA32
:10414C0088F804F83810297804EBC1014A702A78F1
:10415C0004EBC20297702A7804EBC20282F803E0E7
:10416C002A7804EBC20210712A7804EBC204E380B3
:10417C0085F800C006B962B6BDE8F081054A13683F
:10418C0001331360F6E700BFC5BD0120C6BD012099
:10419C0040030120400B01206649674B674A70B50C
:1041AC002DED028B1B7882B00C5C054612782344F3
:1041BC0000EE903AF8EEE00A002A40F08980FDEE1D
:1041CC00E07A5F4A5F4EB2EE088A5F49B0EE000AB1
:1041DC0017EE903ADFED5D6A86FB03061078DA176E
:1041EC00C2EB660202EB4202A3EB8203584A0C3389
:1041FC00A2FB0362D20802EB4202A3EB820300EBA8
:10420C00400200EB82000144194491F9013007EEA1
:10421C00103AB8EEC77AC7EE267A77EEA00AC0EE4F
:10422C00880A22F0BDFEB7EEC00A22F061FAB7EEA2
:10423C00C00B484B20EE088A1E7884F30704DFED90
:10424C00466A9FED467A344407EE904AF8EEE77AD8
:10425C0038EE670A20EE260AB4EEC70AF1EE10FA21
:10426C002EDCDFED3F7AB4EE670AF1EE10FA48BFB0
:10427C00B0EE670A3B4E22F05DFE04B236F9153003
:10428C00A34219D0384B1B78EBB1384A384B127813
:10429C001B78934241D0A91CC9B20192002223463B
:1042AC00009102201146FFF733FF324A324B12685D
:1042BC0026F8154043F8252002B0BDEC028B70BDEA
:1042CC00B0EE470AD6E72D4A284B11781A78E4E766
:1042DC002B4B24B2B0EE000A1B7808EE903AF8EEA5
:1042EC00688AC0EEA80A22F05BFEB7EEC00A22F084
:1042FC00FFF907EE904AB2EE087A164BB7EEC00BF8
:10430C00F8EEE77A1E7820EE078A27EE870A80EE11
:10431C00280A22F00FFE04468FE71A4BA3FB051365
:10432C00DB0803EB830103EB4101691A0631C9B2C7
:10433C00B3E700BF30C90020DFBD0120BABD0120AA
:10434C00DABD0120ABAAAA2A583600200000C842C8
:10435C00ABAAAAAADEBD0120ABAA2A4300F8FF45EE
:10436C00000000C6F00B0120C8BD01203F890020D1
:10437C00B1BD012088290120080C01203D890020B5
:10438C002E890020A38B2EBA2DE9F84F674C684B71
:10439C0022781B789A4200F0C68010264FF0000E4F
:1043AC00644DDFF8A0812378013EDBB2F6B215F83C
:1043BC0033002378C0B205EBC30393F801C0237814
:1043CC005FFA8CFC05EBC3039B782278DBB205EB20
:1043DC00C202D1782278C9B205EBC20292F804A0CD
:1043EC002278BAF1010F5FFA8AFB05EBC202B2F830
:1043FC00069022780FFA89F902F10102D2B22270EA
:10440C0002D8BEF1000F7AD1BBF1030F1AD8DFE846
:10441C000BF05E2A4202012914D8013B00044FEA3A
:10442C000C6C1B0200F4FE000CF0FE4C03F47063E9
:10443C0043EA011303434BF20B0043EA0C0318430A
:10444C0019F070F83A4B94F800E01B78002E18BF66
:10445C009E4514BF4FF0010E4FF0000EA3D1BDE8E6
:10446C00F84F19F067B80129ECD8013B00044FEA6A
:10447C000C6C1B0200F4FE000CF0FE4C03F4706399
:10448C0043EA0113034348F2080043EA0C031843C0
:10449C0019F048F8D6E70129D4D809F30D095A1EAA
:1044AC000B014EF20E0009F5005912024FEAE91108
:1044BC0002F470624FEA094943EA016309F4FE0908
:1044CC00134343EA0903184319F02CF8BAE70129FE
:1044DC00B8D8013B00044FEA0C6C1B0200F4FE0040
:1044EC000CF0FE4C03F4706343EA0113034349F2EE
:1044FC00090043EA0C03184319F014F8A2E70E4A1A
:10450C00D8F804A00D4F1268A7FB022E0C4A4FEAF4
:10451C009E4E126802FB0EFED8F80420A2EB0A0293
:10452C009645F9D870E7BDE8F88F00BFC6BD0120ED
:10453C00C5BD012040030120AC5F002083DE1B437E
:10454C0054860020001000E0154B33F8103003B3F4
:10455C00144A1549126851F82010521A934218D96E
:10456C0007EE902A114AB8EEE77A07EE903A104B14
:10457C0002EB8002F8EE677A03EB800392ED000AFF
:10458C00C7EE276AD3ED007A77EEC07AA7EEA60ABB
:10459C007047074B03EB800393ED000A704700BF95
:1045AC00B80B012088290120C00B0120A80B012089
:1045BC00E00B0120A44B2DE9F04FDFF8F0A2002412
:1045CC00A24EA34DD3F80090DFF8E482A14F2DED5D
:1045DC00068BDFEDA18A83B09FEDA08A9FEDA09A98
:1045EC001AF8013B002B3ED02B68A9EB0303092BD7
:1045FC0039D92046FFF7A8FF98ED007AD7ED007A5D
:10460C0030EE470A30EE270A20EE280AB4EEC80A2C
:10461C00F1EE10FA00F31281B4EE490AF1EE10FA41
:10462C0048BFB0EE490A22F085FCB6F900200FFA1B
:10463C0080FBABEB020207320E2A14D9894B1B7894
:10464C00002B40F0FE80884B1B7800930022874B98
:10465C00022011461B7801935B46FFF759FDA6F823
:10466C0000B0C5F8009001340236043508F1040896
:10467C00E4B20437042CB3D1DFF8388200247C4E2A
:10468C007C4D9FED759ADFED758ADFED759A9FED88
:10469C007AAA7AE0FDEEE07A784B794AB2EE088A93
:1046AC001978B0EE000A17EE90CA764B83FB0C3EDD
:1046BC004FEAEC73C3EB6E0303EB4303ACEB830CDD
:1046CC00714B0CF10C0CA3FB0CE3DB0803EB430369
:1046DC00ACEB830301EB410C01EB8C010A441A4453
:1046EC0092F9013007EE103AB8EEC77AC7EE0A7AA3
:1046FC0077EEA00AC0EE880A22F052FCB7EEC00A90
:10470C0021F0F6FFB7EEC00B604B20EE088A93F851
:10471C0000B08AF30700584407EE900AF8EEE77AE7
:10472C0038EE670A20EE090AB4EEE80AF1EE10FA48
:10473C006BDCB4EE690AF1EE10FA48BFB0EE690A10
:10474C0022F0F8FBB6F900200FFA80FB5A4517D07F
:10475C00444A1278002A60D04D4A444912780978AC
:10476C0091425FD00237FFB2019200225B460220D9
:10477C0011460097FFF7CCFCA6F800B0C5F80090E6
:10478C000134023604350C2C42D018F8013BE7B248
:10479C00002BF5D02B68A9EB0303092BF0D93D496D
:1047AC003D4B14F801A01B783C4A5344127800EEA0
:1047BC00903AF8EEE00A002A3FF46CAF384BB0EEBA
:1047CC00000A1B780AEE903AF8EE6AAAC0EEAA0A22
:1047DC0022F0E6FBB7EEC00A21F08AFFB2EE087AAF
:1047EC000FFA8AF0B7EEC00B284B07EE900A20EEBA
:1047FC00078A93F800B0F8EEE77A27EE870A80EE86
:10480C002A0A22F097FB824683E79FED140A97E76A
:10481C0003B0BDEC068BBDE8F08F224A17781C4A1A
:10482C001278A1E7204BA3FB0701C90801EB81001B
:10483C0001EB40017F1A0637FFB295E79FED070A9F
:10484C00F1E6A31CDBB200E788290120900B0120C4
:10485C00980B0120D00B0120ABAA2A4300F8FF458E
:10486C00000000C6C8BD012032890020B1BD012066
:10487C00F00B0120080C01200000C842DABD012019
:10488C0058360020ABAAAA2AABAAAAAADEBD0120E0
:10489C003F89002030C90020DFBD0120BABD0120B6
:1048AC002E8900203D890020A38B2EBAE0C1002068
:1048BC00E00B01201402012030B583B00446FFF751
:1048CC0043FE1F4A1F4B02EB80029FED1F7A03EB46
:1048DC008003DFED1E7A92ED006AD3ED006A30EEB4
:1048EC00460A30EE260A20EE070AB4EEE70AF1EE8D
:1048FC0010FA21DCDFED167AB4EE670AF1EE10FA4D
:10490C0048BFB0EE670A22F015FB124BA11C05B292
:10491C0000221878C9B22B46CDE9001011460220AE
:10492C00FFF7F6FB0C4A0D490D4B126821F8145099
:10493C0043F8242003B030BDB0EE670AE3E700BFB4
:10494C00E00B0120D00B0120ABAA2A4300F8FF4555
:10495C00000000C6B1BD012088290120900B012068
:10496C00980B0120F8B5B0EE406A054614460F4688
:10497C002DED028B002940F09080494BAE00494A46
:10498C0003EB850383ED000A474B03EB850383EDB3
:10499C00006A464B1968464B42F825101B78454A6D
:1049AC00234422F8157000EE903A434B1B78F8EE36
:1049BC00E00A93B3414B24B2B0EE000A1B7808EE28
:1049CC00903AF8EE688AC0EEA80A22F0E9FAB7EE3F
:1049DC00C00A21F08DFE07EE904AB2EE087A384BF1
:1049EC00B7EEC00BF8EEE77A1C7820EE078A27EEBC
:1049FC00870A80EE280A22F09DFA80F30700314BDB
:104A0C002044334407EE900AF8EEE77A38EE678AD2
:104A1C0083ED008ABDEC028BF8BDFDEEE07A2A4AEC
:104A2C002A4DB2EE088A2A49B0EE000A17EE903AE7
:104A3C00DFED286A85FB03051078DA17C2EB6502F7
:104A4C0002EB4202A3EB8203234A0C33A2FB035278
:104A5C00D20802EB4202A3EB820300EB400200EB14
:104A6C0082000144194491F9013007EE103AB8EE76
:104A7C00C77AC7EE267A77EEA00AC0EE880A22F033
:104A8C008FFAB7EEC00A21F033FEB7EEC00B0C4B19
:104A9C0020B220EE088A1C78AFE7FFF755FD6CE7D3
:104AAC00A80B0120C00B0120E00B0120882901205C
:104ABC00DFBD0120B80B0120BABD01202E890020DA
:104ACC00DEBD0120D00B0120DABD0120ABAAAA2A41
:104ADC00583600200000C842ABAAAAAAF0B51D4661
:104AEC0083B00023144607460E4603206521CDE90A
:104AFC0000251A46FFF70CFB3A4600236421CDE94A
:104B0C000045FFF705FB002332460621CDE90045A1
:104B1C00FFF7FEFA03B0F0BD244B70B51C781CB93E
:104B2C00234D2B7873BB70BD224D234C2B782278F0
:104B3C009A421AD0012204210620FFF7CFFF2B78CE
:104B4C00022230210020FFF7C9FF237801220C211B
:104B5C000620FFF7C3FF2378022230210020FFF745
:104B6C00BDFF134B01221A7070BD13460F21012299
:104B7C000620FFF7B3FF2B78022230210020FFF72D
:104B8C00ADFFEEE70B4E0122214606203378FFF7EE
:104B9C00A5FF094B32781B789A4204D0012221469A
:104BAC000620FFF79BFF00232B7070BDC8BD0120B2
:104BBC00C9BD0120B1BD01203F8900202DE9F04F76
:104BCC00B0F10009DFF8F48083B018BF4FF0010991
:104BDC0098F800304B455DD0314D0224314F324EA8
:104BEC00DFF8DCA015F8011B81B198F80000234612
:104BFC003A7808B99AF80030009301203378019381
:104C0C000023FFF785FA002305F8013C0134E4B2D8
:104C1C00062CE7D10024254D254EDFF8A8A0274609
:104C2C00DFF8A4B022E0ABFB04E300789CF800E0D2
:104C3C0004F1020CDB0886455FFA8CFC07D103EB10
:104C4C00830C03EB4C03E31A06335FFA83FC0190ED
:104C5C0000230120CDF800C0FFF75AFA05F8017CBB
:104C6C00013426F8027BE4B20C2C11D015F8011B90
:104C7C000029F5D098F800300E48DFF82CC09AF8CF
:104C8C000020002BCFD10C4B007893F800C0DEE74E
:104C9C0088F8009003B0BDE8F04FFFF73DBF00BFB0
:104CAC00E0C1002037890020B1BD01201402012091
:104CBC00F00B01203F8900203D890020C8BD012058
:104CCC003289002043890020A38B2EBA00000000FB
:104CDC00F5EEC00A08B5F1EE10FA2DED048B40F29A
:104CEC008B80DFED597AB7EEC04AB4EEE70AF1EEED
:104CFC0010FA30DBB7EEE06AB7EE008BB7EEC11AF4
:104D0C0038EE468B28EE018BB0EE489B00209FEDD1
:104D1C00467B21EE077BFDEEC77B17EE901A16F053
:104D2C009FFE01209FED427B28EE078BFDEEC87B9A
:104D3C0017EE901A16F094FE02209FED3F7B29EEA1
:104D4C00077BBDEC048BFDEEC77BBDE8084017EE7E
:104D5C00901A16F085BE9FED3A3BB7EE007BB7EE8E
:104D6C00E06A84EE035B37EE469BB7EEC11A29EE80
:104D7C00019BFDEEC54BB8EEE43B14EE902A35EEEC
:104D8C00435BB0EE473B37EE452BA6EE453BA6EE1C
:104D9C00427B21EE033B21EE078B042A3CD801A376
:104DAC0053F822F03D180000E9180000F318000039
:104DBC000519000017190000B0EE418BB0EE431B33
:104DCC00A4E7B0EE417BB0EE491BB0EE489BB0EED1
:104DDC00478B9BE7B0EE417BB0EE438BB0EE491BAB
:104DEC00B0EE479B92E7B0EE417BB0EE481BB0EEC5
:104DFC00498BB0EE479B89E70021084616F030FE40
:104E0C000021012016F02CFE00210220BDEC048BA9
:104E1C00BDE8084016F024BEB0EE498BB0EE439BC3
:104E2C0074E700BFAFF30080000000000000694091
:104E3C000000000000C05C400000000000805140F9
:104E4C000000000000004E400000B4434F4B2DE921
:104E5C00F04F054683B053F820000C460CF002FED0
:104E6C004B4B4C4E53F825000CF0FCFD4A4B53F8C1
:104E7C0025000CF0F7FD494B53F825000CF0F2FD22
:104E8C00474A484B1268715D43F82520002938D1F8
:104E9C005FFA85F8444FDFF828A197F800B0BBF112
:104EAC00000F04D04046FFF707FD97F800B0DFF87D
:104EBC00149124B299F80030002B54D120463B4B6E
:104ECC0080F307013A4F1A783B781944C9B2BBF109
:104EDC00000F2DD008F102085FFA88F300939AF8BE
:104EEC000030019300231846FFF712F999F80030AF
:104EFC002BBB3B7884F307041C44745503B0BDE80A
:104F0C00F08F2C4B5FFA85F8274F1A783B7893B9C2
:104F1C00294B1B78DFF8A8A00120009300239AF8F6
:104F2C0000C0CDF804C0FFF7F3F800237355B4E7C5
:104F3C00214B1B78D2E708F10203DBB2EAE71F4BE7
:104F4C0007EE904AB2EE087A1B78F8EEE77A00EE9C
:104F5C00103A67EE877AB8EE400A87EE800A21F0A5
:104F6C00E9FF0446C5E7154B07EE904AB2EE087A06
:104F7C001B78F8EEE77A00EE103A67EE877AB8EE17
:104F8C00400A87EE800A21F0D5FF98E73C6B0020A1
:104F9C002C6B0020E0C10020F8690020086A00207A
:104FAC0088290120040D0120C8BD01203189002071
:104FBC00C4BD012037890020328900202E890020B1
:104FCC00B1BD0120BABD0120394B1B7810B5002BA7
:104FDC0033D0384B93F90030002B1BDA3649374A63
:104FEC000B6810681B1A952B26D93548F7EE000A6A
:104FFC00344C03789FED341A83F00103096894ED67
:10500C00000A002B1160037001FE201ABDE810404D
:10501C00FFF75EBE2D4AB7EE001A02EB8303F0EEEB
:10502C00410A93ED000AFFF753FE234B244901205C
:10503C001A68224B08701A6010BD254B1B78002B88
:10504C00FAD01D481D4903680A689B1A3B2BF3D9FB
:10505C00204CF7EE000A0068B7EE007B22781E4B5E
:10506C00013208601D48A3FB02131649D0ED005A0B
:10507C001B0991ED000A30EEE51A03EB8303A2EB5A
:10508C008303B7EEC11A9FED086B0A2B237026FE23
:10509C00077B21EE071BBDE81040B7EEC11BFFF7E5
:1050AC0017BE00BFAFF30080CDCCCCCCCCCCDC3F5A
:1050BC00C1BD012046890020882901206C020120F5
:1050CC00C0BD012038C000208FC2F53DE02E00206D
:1050DC00B8BD0120B9BD0120CDCCCCCC70020120D3
:1050EC00F8B5274B0025274E40F201179FED260AF5
:1050FC002DED088B9FED1E8B9FED1FABBEEE009B25
:10510C0093ED00BAB5EEC0BAA6EC010AF1EE10FAB6
:10511C0014DD0024B7EEC00A013420EE080B22F097
:10512C0023FA07EE904AF8EEE77AB7EEC00BF4EEEE
:10513C00CB7AF1EE10FAEDD406ED010A0135BD4241
:10514C0010D007EE905AB0EE490BB8EEE77BA7EE05
:10515C000A0B30EE000B20EE080BB7EEC00B22F062
:10516C00AFF8CFE7BDEC088BF8BD00BFAFF3008004
:10517C00182D4454FB210940000000000000703F32
:10518C0020890020B87B01202EBDBB332DE9F04FC8
:10519C00304C4FF0E02340222F4E304D04F11007DD
:1051AC00DFF8CC80DFF8CC90DFF8CCB0DFF8CCA007
:1051BC002DED028B9FED2A8A83B0DFED2A8AC3F88E
:1051CC00882154F8040B0CF085FC78B9BC4206F12C
:1051DC00040605F10405F4D14FF0E0234022C3F896
:1051EC00082103B0BDEC028BBDE8F08F1E4BF3EE33
:1051FC00047AD5ED006A414693ED007A1B4B326878
:10520C0093ED000AA6EE870AB4EEE70AF1EE10FA67
:10521C0007D4B4EEC80AF1EE10FA06DD594653462F
:10522C0000E04B46C2E90631D0E720EE280A019295
:10523C00F0EE407AFEEEE07ACDED007A22F040F806
:10524C00F0EE407ADDE90032FEEEE07A17EE901ACD
:10525C00E8E700BFF86900205C6B002034C2002036
:10526C0000D089469365153878C0002074C00020A2
:10527C00DE571700DF571700008C3C4B00BE6C50FC
:10528C00A44AB0EE000BA44B2DE9F04F2DED0A8B88
:10529C00127887B023F810100D4607EE902A0446BA
:1052AC000392B8EE67CBDFF8D882B0EE4C1B21F03E
:1052BC001BFB9A4B98F800B0B0EE408B93F800A013
:1052CC00974B93ED00BA05EB0A0309EE103AB7EED3
:1052DC00CBAAB8EEC99ABBF1000F40F05B81FDEE92
:1052EC00C97A9049DFED906AF2EE080ADFF89492E1
:1052FC00B0EE000A17EE903A81FB0321DA17C2EBED
:10530C0061028A4902EB42020978A3EB8203884AC4
:10531C000C33A2FB0302D20802EB4202A3EB820382
:10532C0001EB410201EB8201824A0A44134493F9D6
:10533C00013007EE103AB8EEC77AC7EE267A77EE50
:10534C00897AC7EEA00A21F02BFED9F80030002B89
:10535C000493F0EE409A40F33381774B032C774A59
:10536C0093F90030C3EBC3031344754A1B5782FBFC
:10537C0003124FEAE373C3EBA203724A1678039A43
:10538C00A2F1020141FA83F302D86F4909570B4489
:10539C0003FB06F7BA4407EE90AAF8EEE77ABBF1E6
:1053AC00000F7DD007EE106AB0EE000AF8EE470A47
:1053BC00C7EEA00A21F0F4FD5C494FF0E020402339
:1053CC00C0F888312AEE088B60480378B4EE006B85
:1053DC005F48B7EEE97A2BEE00BA28EE068BD0EDDB
:1053EC00006A5C4828EE078B07EE103AD0ED007A85
:1053FC005948B8EEC77A00EB8400E7EE267AB7EE90
:10540C00C88B80ED008AF5EEC07AF1EE10FA00F14F
:10541C008F83DFED526AF4EEE67AF1EE10FA40F388
:10542C008D83DFF864C14E48CCF81C004D48D0ED9C
:10543C00006A4D48D0ED007AE7EE267AF5EEC07A98
:10544C00F1EE10FA00F170839FED447AF4EEC77A16
:10545C00F1EE10FA40F3B683DFF830C14048CCF8D7
:10546C001C004248F3EE047A90ED007A404890ED2F
:10547C00000A4048A7EE080A50F824B0B4EEE70A38
:10548C00F1EE10FA00F1E481DFED3B7AB4EEE70ABD
:10549C00F1EE10FA40F3A7833848DFF8F4A0DAE114
:1054AC00BDEEE77A1F499FED206AF2EE080AB0EED6
:1054BC00000A17EE100A81FB001CC117C1EB6C012E
:1054CC0001EB4101A0EB8101194801F10C0C1749CA
:1054DC00A0FB0CE00591C00800EB4000ACEB800E8B
:1054EC0091F800C013480CEB4C0A0CEB8A0C60448E
:1054FC00704490F9013006EE903AF8EEE66A86EECA
:10550C00867A37EE277AC7EE200A21F049FD0599F5
:10551C0053E700BF33890020F4C10020DFBD012018
:10552C0080690020ABAAAA2A0000C842DABD01207B
:10553C00ABAAAAAA58360020B3BD0120006B0020EC
:10554C00676666662E89002044C2002028C90020A8
:10555C00F0C10020ECC1002034C200200044AC4655
:10556C000000FE7FE8C10020E4C1002078C00020CC
:10557C0074C000205C6B002000D08946008C3C4B32
:10558C00BABD0120C000012090C70020D8C5002062
:10559C0000BE6C50954BB0EE000ADFF8A8921B7859
:1055AC0000EE903AF8EE600AC9EE200A21F0F8FC01
:1055BC00D9F80030002B0493F0EE409A3FF7CDAEB3
:1055CC00B0EE4C1BB0EE000B21F08EF92AEE000B66
:1055DC00B4EE00AB20EE0AABBBF1000F00F0188369
:1055EC00824B1B78B0EE000A00EE903AF8EE600A9F
:1055FC00C9EE200A21F0D4FC4FF0E0234022C3F87E
:10560C0088217B4BB7EEC00A7A4A1B78D2ED006A30
:10561C0020EE0A0B07EE103A774BB8EEC77AD3EDB3
:10562C00007A764BE7EE267A03EB8403B7EEC08B59
:10563C0083ED008AF5EEC07AF1EE10FA00F15C838E
:10564C00DFED6F6AF4EEE67AF1EE10FA40F3808348
:10565C00DFF8F4C16B4BCCF81C306B4A6B4BD2EDC2
:10566C00006AD3ED007AE7EE267AF5EEC07AF1EE19
:10567C0010FA00F137839FED627AF4EEC77AF1EEFF
:10568C0010FA40F35483DFF8C4C15E4BCCF81C30E5
:10569C005F49F3EE047A5F4A91ED007A92ED000ACD
:1056AC005D4BA7EE080A53F82470B4EEE70AF1EE4E
:1056BC0010FA00F1FC82DFED597AB4EEE70AF1EE54
:1056CC0010FA00F37C83DFED567A20EE270AF0EE19
:1056DC00407AFEEEE07A17EE906A21F0F1FDF0EEE2
:1056EC00407AFEEEE07A17EE903A4E4AD2ED007A0E
:1056FC0068EE277AC7E90663F5EEC07A4A4B53F891
:10570C002420F1EE10FA00F1F4829FED3D7AF4EED4
:10571C00C77AF1EE10FA0CDC9FED447A394967EE4A
:10572C00877AFCEEE77A17EE903AC2ED097A8B4253
:10573C0001D9344B53623E4A3E4BD2ED007A53F8BA
:10574C00242068EE277AF5EEC07AF1EE10FA00F11B
:10575C00CD829FED2B7AF4EEC77AF1EE10FA0CDCC9
:10576C009FED327A274967EE877AFCEEE77A17EEDF
:10577C00903AC2ED097A8B4201D9224B53622E4AE0
:10578C002E4BD2ED007A53F8242068EE277AF5EEF2
:10579C00C07AF1EE10FA00F1B3829FED197AF4EEB3
:1057AC00C77AF1EE10FA0CDC9FED207A154967EE02
:1057BC00877AFCEEE77A17EE903AC2ED097A8B42C3
:1057CC0001D9104B53621E4B53F8243072B600268D
:1057DC00DE611E7662B6B0EE480A21F043FBF2EEB3
:1057EC00087A314620EE270A1CE100BF2E890020E2
:1057FC0028C90020F0C10020ECC1002034C20020D8
:10580C000044AC460000FE7FE8C10020E4C100204B
:10581C0078C0002074C000205C6B002000D089464A
:10582C0093651538C8860020386A0020C637BE47F5
:10583C00CC860020486A0020D0860020586A0020C0
:10584C00186A0020C000012090C70020D8C5002095
:10585C00C348DFF860A3CBE906A0C248D0ED007ABC
:10586C00C1486BEE277A50F82430F5EEC07AF1EE91
:10587C0010FA00F156819FEDBD7AF4EEC77AF1EE85
:10588C0010FA0CDC9FEDBA7ABA4A67EE877AFCEE16
:10589C00E77A17EE900AC3ED097A904201D9B54820
:1058AC005862B548D0ED007AB4486BEE277A50F8C0
:1058BC002430F5EEC07AF1EE10FA00F12F819FED55
:1058CC00AB7AF4EEC77AF1EE10FA0CDC9FEDA87A05
:1058DC00A84A67EE877AFCEEE77A17EE900AC3EDDA
:1058EC00097A904201D9A3485862A548D0ED007AB4
:1058FC00A4486BEE277A50F82430F5EEC07AF1EE1E
:10590C0010FA00F1FC809FED997AF4EEC77AF1EE73
:10591C0010FA0CDC9FED967A964A67EE877AFCEECD
:10592C00E77A17EE900AC3ED097A904201D99148B3
:10593C0058620978002940F0E880A6EB8601039BA9
:10594C00B3EE086B06FB03122A44D21B07EE902A17
:10595C00B8EEE77B87EE060BB7EEC00BDDED047AF5
:10596C00894BF8EEE77A53F82410F5EEC07AF1EE95
:10597C0010FA40F29381B7EE007AB4EEC70AF1EE5A
:10598C0010FA26DD814B9FED827A67EE877AFDEE69
:10599C00E77A17EE902AB2B372B6C8690B629842D6
:1059AC0000F0C18180FAA3F6EFF300873F0140F1CC
:1059BC006781571C022F04D993FBF2F690FBF2F28D
:1059CC00B61A002E00F061814E6201230B7662B68E
:1059DC001EE0BFEE007AB4EEC70AF1EE10FA00F149
:1059EC005B819FED6B7A67EE877AFDEEE77A17EEB7
:1059FC00902ADFED687A20EE270AFDEEC07A17EECA
:105A0C00903A002AC8D172B6CB6100230B7662B6ED
:105A1C00B0EE480A21F026FAF2EE087AB9F8001036
:105A2C0020EE270A2A462046FEF79CFF5A4E4FF0DE
:105A3C00E0234022C3F80821315D21B907B0BDEC49
:105A4C000A8BBDE8F08F554F2DB298F8003097F8BF
:105A5C000090002B40F02E81284680F3070048442C
:105A6C008142EBD04E4BDFF850A11A789AF80030F7
:105A7C00002B40F002814B4B1B78DFF8409101204A
:105A8C000093002399F800C0CDF804C0FEF740FB4A
:105A9C0000239AF800B03355BBF1000F04D0204618
:105AAC00FEF70AFF9AF800B098F80030002B40F08F
:105ABC00738128463B7880F3070119443A4BC9B2ED
:105ACC001A78BBF1000F00F00A81A31CDBB2009323
:105ADC0099F80030019300231846FEF719FB98F84B
:105AEC000030002B40F04581284680F307003B78BE
:105AFC000344335507B0BDEC0A8BBDE8F08F002092
:105B0C000978586200293FF418AF88EE0B0A21F08F
:105B1C00A9F9F6EE007A20EE270A1FE7002058625A
:105B2C00E3E600205862BCE620480023C36198E4F9
:105B3C001F484FF0000CC0F81CC077E4DFED0C6A76
:105B4C000C4B67EEA67ADFF868C0FCEEE77A17EE2E
:105B5C00900ACCED077A98423FF665AC66E400BF3C
:105B6C00DE571700C8860020386A00200044AC4677
:105B7C00C637BE470000FE7FCC860020486A002056
:105B8C00D0860020586A0020186A00200000FF7F91
:105B9C006666304200FEFF4EE0C10020C4BD01200D
:105BAC00378900203289002031890020D8C5002097
:105BBC0090C70020DF571700C8BD0120B1BD0120E0
:105BCC00C637BE471FED027A7F4B67EE877ADFF848
:105BDC002CC2FCEEE77A17EE900ACCED077A9842CD
:105BEC003FF63CAC3DE4DFED797A059120EE270AD7
:105BFC00F0EE407AFEEEE07A17EE90AA21F060FB10
:105C0C00F0EE407A0599FEEEE07A17EE900A22E665
:105C1C00FDEEC97A6E4A6F4EF2EE080A1078B0EEBD
:105C2C00000A17EE903A6C49DFED6C6A86FB03268E
:105C3C00DA17C2EB660202EB4202A3EB8203684A5C
:105C4C000C33A2FB0362D20802EB4202A3EB8203E9
:105C5C0000EB400200EB82000144194491F9013041
:105C6C0007EE103AB8EEC77AC7EE267A77EE897A45
:105C7C00C7EEA00A21F094F9BEE4A31CDBB2FCE64B
:105C8C0096FBF2F6002E7FF49FAE9842B4BF012033
:105C9C004FF0FF30486298E6524B74E6F7EE007A0C
:105CAC00B4EEE70AF1EE10FA2DDD4F4BABE64F4B9D
:105CBC004F4E1AE507EE905A4E4B0391B8EEE70A99
:105CCC001B78F2EE087A20EE270A07EE903AF8EEEF
:105CDC00677A80EE270A21F02DF90399BDE6464B31
:105CEC001B78F4E6454B0022DA61D1E400235362C1
:105CFC0045E5002353621EE5414B0022DA61ACE41A
:105D0C00002353625FE5FFEE007AB4EEE70AF1EE92
:105D1C0010FA57D4DFED3B7A20EE270AFDEEC07A5D
:105D2C0017EE903A6FE600230B7662B670E69FEDA5
:105D3C00367A254A67EE877ADFF8C0C0FCEEE77A40
:105D4C0017EE903ACCED077A93423FF69EAC9FE467
:105D5C00DFED2D6A1C4A67EEA67ADFF8A4C0FCEED4
:105D6C00E77A17EE903ACCED077A93423FF672AC95
:105D7C0073E4204B07EE905AB2EE087A1B78F8EEDB
:105D8C00E77A00EE103A67EE877AB8EE400A87EEB3
:105D9C00800A21F0CFF8A8E607EE905A154BB8EE22
:105DAC00E70A1B78F2EE087A20EE270A07EE903A03
:105DBC00F8EE677A80EE270A21F0BCF87AE6134BEE
:105DCC00134E92E4074B1EE60000FE7F93651538D8
:105DDC00DABD0120ABAAAA2A583600200000C8421E
:105DEC00ABAAAAAA000001800000FF7FDE571700B3
:105DFC00DF5717002E89002032890020D8C50020DB
:105E0C0090C7002000FEFF4EC637BE47008C3C4BAF
:105E1C0000BE6C502DE9F04F0446DFF8648183B06E
:105E2C000846E7B24B4D14F003FD18F80410384641
:105E3C00494EFFF725FA494B53F824000BF012FE9C
:105E4C00474B53F824000BF00DFE464B53F824003F
:105E5C000BF008FE444B53F824000BF003FE295DB5
:105E6C00002936D1DFF81CA196F800B0BBF1000F69
:105E7C0004D03846FEF720FD96F800B0DFF8089104
:105E8C0018F8041099F80030002B4FD10846374B06
:105E9C0080F30701364E1A7833781944C9B2BBF136
:105EAC00000F2AD00237FFB29AF800300097019306
:105EBC0000231846FEF72CF999F8003018F8040066
:105ECC000BBB337880F307001844285503B0BDE8AA
:105EDC00F08F284B1A78337893B9274B1B78DFF85F
:105EEC00A4A00120009300239AF800C0CDF804C0B0
:105EFC00FEF70EF900232B55B6E71F4B1F78D3E79F
:105F0C00BB1CDBB2EBE71D4B07EE900AB2EE087A36
:105F1C001B78F8EEE77A00EE103A67EE877AB8EE67
:105F2C00400A87EE800A21F005F8CAE7134B07EE0A
:105F3C00901AB2EE087A1B78F8EEE77A00EE103A77
:105F4C0067EE877AB8EE400A87EE800A20F0F2FFFF
:105F5C009DE700BFE0C10020C8BD01203C6B0020C4
:105F6C002C6B0020F8690020086A00203189002081
:105F7C00C4BD012037890020328900202E890020E1
:105F8C0020C90020B1BD0120BABD0120014900206B
:105F9C00FFF740BFA886002001490120FFF73ABF58
:105FAC00B086002001490220FFF734BFB8860020DC
:105FBC0001490320FFF72EBFC08600202DE9F043D6
:105FCC00604B8DB0604E1A783478B4FBF2F302FB60
:105FDC001343DBB2CBB95D495D4A5E4F03C93B78D5
:105FEC009180090C1060917103EBC30203EB420228
:105FFC0002EBC202D2B2552A40F29D8003F001039B
:10600C00EB21C3F10203DBB211E0524F3B7803EBFF
:10601C00C30203EB420202EBC202D2B2552A40F297
:10602C008D8003F001030F21C3F10203DBB20C20BE
:10603C00B4FBF3F203FB1243DBB2B3FA83F35B0959
:10604C0003FB01F115F00CFD434BFF21186819718E
:10605C00A0B1424B424A03441B11D15453781178DE
:10606C0090788B4228BF0B46D1783E4A834228BF9A
:10607C0003468B4228BF0B4682F87A303A4B06A96E
:10608C003A4A35480093069314F050FB069B08A837
:10609C00DB689847009B02A8DB689847344A137862
:1060AC00002B37D0334B34491B688B4209D803EB98
:1060BC004303DB00013B102B03D93049096801B1C4
:1060CC000B6000232E490624137033782D4D11F8E4
:1060DC00039049FA04F3DA070DD5032CA04629786E
:1060EC00C8BFA4F103085FFA88F0FFF7C9F8297854
:1060FC004046FEF7ABFE013C013D631CE9D1337811
:10610C003A780133B3FBF2F102FB113333700DB06B
:10611C00BDE8F0831C4B18491B688B4209D803EB74
:10612C004303DB00013B102B03D91449096801B16F
:10613C000B600123C6E70323EB2178E703230F2130
:10614C0075E700BF4E890020D1BD012020C9002079
:10615C00C82001204F8900202C86002000BFF7BFEB
:10616C009463002000E400E0E8400020FF3D49007B
:10617C003A890020F4200120AAAAAA0AEC86002061
:10618C00D0200120CE20012074020120000000004C
:10619C00AF4AB0EE000BAF4B2DE9F0412DED088B63
:1061AC0012780E4623F81010054601EE102AB5EEB3
:1061BC0000ABB8EE411B20F097FBA74B93ED008A88
:1061CC00A64BB7EEC88A1C78A54B28EE000B3444BE
:1061DC001B7807EE904AF8EEE77A20EE0A9B002B2C
:1061EC0040F0C2809F4ADFF8CC82BDEEE77A11788E
:1061FC009D4EB2EE08BA9D4FB0EE000A17EE103A63
:10620C00DFED9BBA88FB0320DA17C2EB600202EBCE
:10621C004202A3EB820301EB41020C3301EB82013E
:10622C00A6FB03020F44D20802EB4202A3EB82034B
:10623C003B4493F9013007EE103AB8EEC77AC7EE3B
:10624C002B0A70EEA70AC0EE8B0A20F0A9FE894B30
:10625C001A78894BB7EEC07A93F90010B0EE000AA9
:10626C00B4FBF2F327EE097B02FB13430B449FEDC7
:10627C00766B28EE066BF7EEC78B07EE903AF8EECE
:10628C00E77A26EE0AABBDEEE77A17EE103A88FBFA
:10629C000328DA17C2EB680808EB4808A3EB88035D
:1062AC000C33A6FB0326F60806EB4606A3EB860387
:1062BC001F4497F9013007EE103AB8EEC77AC7EED3
:1062CC002B0A70EEA70AC0EE8B0A20F069FE4FF085
:1062DC00E0224021694BC2F88811B7EEC00A53F88E
:1062EC002530F5EEC08A20EE0A0BF1EE10FAB7EE6F
:1062FC00C00B00F1A480DFED627AF4EEE78AF1EED8
:10630C0010FA77DD5F4A5A62B5EEC00A5E4B53F85D
:10631C002520F1EE10FA00F18F80DFED597AB4EE02
:10632C00E70AF1EE10FA57DD564BD3615749F3EEFD
:10633C00047A574A91ED000A92ED007AB8EEC00A41
:10634C00544B53F82550A7EE280AB4EEE70AF1EEA9
:10635C0010FA34D4DFED507AB4EEE70AF1EE10FA0D
:10636C0057DD4E4B4E4C2CE0424BB0EE000A1E78E3
:10637C0007EE106AB8EE47BAC7EE8B0A20F010FE93
:10638C003D4B93F90030B7EEC07AB0EE000AB4FB87
:10639C00F6F206FB124427EE097B1C449FED2A6B98
:1063AC0028EE068B06EE904AF8EEE60AC0EE8B0A53
:1063BC0028EE0AABF7EEC78B20F0F2FD87E7394BDE
:1063CC00394C4FF0E0224021BDEC088BC5E9064367
:1063DC00C2F80811BDE8F081DFED347A294920EECE
:1063EC00270AFCEEC07A17EE903AC2ED077A8B4280
:1063FC009AD89BE7DFED2D7A224968EEA77AFCEE5E
:10640C00E77A17EE902AC3ED097A8A423FF67AAF03
:10641C007AE7DFED277A20EE270AF0EE407AFEEEDF
:10642C00E07A17EE904A20F04BFFF0EE407AFEEE49
:10643C00E07A17EE903AC4E70023D36176E70022A6
:10644C005A6261E7AFF3008000000000000050408A
:10645C003E8900202002012080690020DFBD012040
:10646C00BABD0120DABD0120ABAAAAAA5836002079
:10647C000000C8422E890020DBBD01205C88002072
:10648C000044AC460000FE7F2C8800200022012036
:10649C0004220120C087002000D08946008C3C4B90
:1064AC0000BE6C50DE571700DF571700C637BE47CB
:1064BC0093651538ABAAAA2AF8B5174D0024174FC7
:1064CC00E6B272B655F8040B0BF004FBE8B962B6F1
:1064DC000134042CF4D1124D0024124F03E062B6A7
:1064EC0001340C2C10D0E6B272B655F8040B0BF03C
:1064FC00F1FA0028F3D037F814103046FFF748FEB5
:10650C0062B601340C2CEED1F8BD37F814103046BD
:10651C00FEF7B6FEDBE700BFF8690020F4C10020EF
:10652C006087002020020120F0B5554D554C15F91F
:10653C0000E0A0F10C05A356012D05D905288CBF50
:10654C0000250125002D48D0BEF1000F15DD4E4869
:10655C000EF1FF3C4D4D8644CCEBCC0C2D786044B9
:10656C00E64405E0624501D12B445BB2864504D07C
:10657C0010F901CBBCF1FF3FF4D1062A5AD94FF0E8
:10658C00000E4348714590F800C093FBFCF00CFBE7
:10659C001033634493FBFCF50CFB153300FB0C33FD
:1065AC0003F0FF0301DD6344DBB258B2A1B994F9E7
:1065BC00051091FBFCF40CFB1411614491FBFCF5F0
:1065CC000CFB151104FB0C1149B2884204DC052AA2
:1065DC0002D00CEB030040B2F0BDA0F10E0C5FFA40
:1065EC008CF6042E2AD9861F0E2EC6D80726AC464A
:1065FC00284D132808BF002A06FB0E55234E0CBF4E
:10660C0001200020083D3678F4450CF1010C0CDA21
:10661C0015F9017FB7F1FF3F07D018B9BA4201D184
:10662C009B1B5BB2BCF1070FEED10028A5D0A3EBEE
:10663C0046035BB2184810F902E0A2E7134806259E
:10664C00077816484619AA4201D13B445BB28642F0
:10665C0004D010F9015FB5F1FF3FF4D11048CCEB39
:10666C00CC0CC51D6044AC4410F9015B6E1C84D08D
:10667C00AA4201D13B445BB28445F5D17DE700BF12
:10668C00382E0020786900200C2D00205089002025
:10669C002E890020A42C0020E4290020362D002077
:1066AC00803400202DE9F04100F1030C0026DFF8C6
:1066BC00A8E0471E17F8010F9EF80030B0FBF3F26C
:1066CC0003FB1200C0B2002E41D0751E4B1E0022DF
:1066DC0051FA85F513F8014F844208BF0122AB42F1
:1066EC00F8D1A2B36745E5D1012E24D94B1CA6F1F4
:1066FC0002080F46002053FA88F84FFA80FE17F86C
:10670C00015FBEF1000F0FDB0EF101030B4403E040
:10671C005A70621CE64611D013F8012D0EF1FF3CA5
:10672C00AA424FFA8CF4F3D88E44474500F101008D
:10673C008EF80150E1D13046BDE8F081A6464745C0
:10674C0000F101008E448EF80150D6D1F3E7731C92
:10675C008855DEB2C6E700BF2E89002070B5164CF6
:10676C009A1A82B00546237892FBF3F4134A144B21
:10677C00167862B21B7833430AD0124BA3FB010389
:10678C00DB0803EB8303A1EB4301C9B2032903D953
:10679C000D4B5A5502B070BD0C4B01A91868FFF790
:1067AC0081FF18B12E44B6FBF0F0C0B22044064B6A
:1067BC0042B25A5502B070BD2E890020B0BD0120E6
:1067CC00B4BD0120CDCCCCCC44C20020806B0020C9
:1067DC00104B1B78013B032B0CD8DFE803F00D1199
:1067EC00080288B90C4B1878404240B2704710F040
:1067FC00FD0FF7D0002070470228F3D0002070471F
:10680C000128EFD0002070470328F3D1024B93F9F5
:10681C0000007047B4BD01202E8900202DE9F04105
:10682C001F46344B06469DF818801B7813B930462A
:10683C00BDE8F081304B1546A3FB023C4FEADC0C63
:10684C000CEB8C0CA2EB4C0C41EA0C0C5FFA8CFCA4
:10685C00BCF1030FEBD80846FFF7BAFF0028E6D0CF
:10686C0009DB264B3418B3F900309C42DFDCE6B26E
:10687C003046BDE8F081224B3418B3F900309C420D
:10688C00D5DB002FF3D0B8F1000F0BD01D4B1B78CC
:10689C004BB31D4B93F80080C8F100084FFA88F8F1
:1068AC001FFA88F8194B1F78134BA3FB0535184BAF
:1068BC00ED081A78174B07FB05F51978164B45446C
:1068CC001878FFF731FE284423B200B29842CEDD8F
:1068DC0093FBF7F207FB123390FBF7F207FB120066
:1068EC008342A4D1C3E7084B93F900801FFA88F8C0
:1068FC00D8E700BFB4BD0120CDCCCCCC248900207E
:10690C0026890020BCBD0120508900202E89002042
:10691C00D7BD0120AFBD0120C2BD01201D4A1E4BB9
:10692C0030B5157883B01B782B430CD01B4B0C4621
:10693C00A3FB0023DB0803EB8303A0EB43030B4314
:10694C00DBB2032B0DD9154B154AA3FB00131268B0
:10695C00DB0803EB8303A0EB4300C0B2105C03B075
:10696C0030BD0F4B01A91868FFF79CFE0028F6D02C
:10697C0025440C4B02A9EDB21A78B5FBF0F300FBE1
:10698C00135551FA85F515F8040C02FB030000B2FF
:10699C00E5E700BFB0BD0120B4BD0120CDCCCCCC0F
:1069AC00806B00202E890020494B2DE9F04193F992
:1069BC00003082B0474D0446C3EBC30390460F46EC
:1069CC001D442E5C61B1444BA3FB0623434ADB08F8
:1069DC00117803EB8302A6EB4202D2B291424CD067
:1069EC003F4B1B78002B31D03B4DA5FB06353D4B67
:1069FC00ED081B7815FB03F53B4B1A78EDB23B4BBE
:106A0C0019783B4B1878FFF78FFD3A4B1B7803FB3B
:106A1C001855054421463046EDB2FFF77FFF3B4643
:106A2C00054432462146CDF80080EDB22846FFF7EA
:106A3C00F5FE032C074605D803462A463146204668
:106A4C00FFF78CFE384602B0BDE8F081A3F133337A
:106A5C00A3FB0623274A1578DB08224A15FB08F509
:106A6C00127803FB0255204B1A78EDB21F4B1978A4
:106A7C001F4B1878FFF758FDCBE7194A12789AB9D3
:106A8C001C4818490478097814FB08F41A4A03FBCB
:106A9C000144174B1549E4B2127809781878FFF7BE
:106AAC0043FD2044C7B2CDE70E48134A00780F4986
:106ABC0013FB00F312780978DFB20D4B1878FFF74F
:106ACC0033FD0C4B1B7803FB18770744FFB2B9E777
:106ADC00B3BD0120006B0020CDCCCCCCCABD0120B5
:106AEC00BCBD01202E890020BDBD0120AFBD012001
:106AFC00C2BD012050890020D7BD01202DE9F04FE7
:106B0C000B4604462DED028BBFB00B930FA9BE4B69
:106B1C001868FFF7C7FD002800F0F0810546002C2F
:106B2C0040F00182B94B0DF1400A0027DFF81893B1
:106B3C001A7847F6FF76B64B1978B64B1878FFF7EC
:106B4C00F3FC2044B44A83B201950FFA80FB92F80F
:106B5C0000C01D46CDF808A0B04B5FFA87F893F93A
:106B6C000010AF4BC1EBC1011944AE4BCC5DA3FB84
:106B7C000414A54B2AA9E408186804FB0C54FFF76D
:106B8C0091FDA54BA4B293F800C060B13EABB8FB2D
:106B9C00F0F100FB118853FA88F818F8500C01FB3F
:106BAC000C0121448CB224B20137A6422AF8024BC4
:106BBC00A8BF2646A145B8BFA146042FCCD19A4AFE
:106BCC009A49127812FB0CF20632A1FB0212984978
:106BDC00A6EBD206B1F9007009EBD20236B212B2B2
:106BEC0026EAE6769742A8BF1746B742DDE9015A76
:106BFC00C0F2848100239E46A6EB0B000FAA90FBEB
:106C0C00FCF30CFB13000023604490FBFCF10CFB29
:106C1C001100194612F8014B0133A04200F07481A7
:106C2C00D9B28D42F6D8013636B2B742B4BF002481
:106C3C000124BEF1270F88BF0024002CDCD1734641
